{
    "abi": [
        {
            "type": "constructor",
            "inputs": [
                {
                    "name": "_poolManager",
                    "type": "address",
                    "internalType": "contract IBinPoolManager"
                },
                {
                    "name": "_owner",
                    "type": "address",
                    "internalType": "address"
                }
            ],
            "stateMutability": "nonpayable"
        },
        {
            "type": "function",
            "name": "ACTIVE_ID",
            "inputs": [],
            "outputs": [
                {
                    "name": "",
                    "type": "uint24",
                    "internalType": "uint24"
                }
            ],
            "stateMutability": "view"
        },
        {
            "type": "function",
            "name": "afterBurn",
            "inputs": [
                {
                    "name": "",
                    "type": "address",
                    "internalType": "address"
                },
                {
                    "name": "",
                    "type": "tuple",
                    "internalType": "struct PoolKey",
                    "components": [
                        {
                            "name": "currency0",
                            "type": "address",
                            "internalType": "Currency"
                        },
                        {
                            "name": "currency1",
                            "type": "address",
                            "internalType": "Currency"
                        },
                        {
                            "name": "hooks",
                            "type": "address",
                            "internalType": "contract IHooks"
                        },
                        {
                            "name": "poolManager",
                            "type": "address",
                            "internalType": "contract IPoolManager"
                        },
                        {
                            "name": "fee",
                            "type": "uint24",
                            "internalType": "uint24"
                        },
                        {
                            "name": "parameters",
                            "type": "bytes32",
                            "internalType": "bytes32"
                        }
                    ]
                },
                {
                    "name": "",
                    "type": "tuple",
                    "internalType": "struct IBinPoolManager.BurnParams",
                    "components": [
                        {
                            "name": "ids",
                            "type": "uint256[]",
                            "internalType": "uint256[]"
                        },
                        {
                            "name": "amountsToBurn",
                            "type": "uint256[]",
                            "internalType": "uint256[]"
                        },
                        {
                            "name": "salt",
                            "type": "bytes32",
                            "internalType": "bytes32"
                        }
                    ]
                },
                {
                    "name": "",
                    "type": "int256",
                    "internalType": "BalanceDelta"
                },
                {
                    "name": "",
                    "type": "bytes",
                    "internalType": "bytes"
                }
            ],
            "outputs": [
                {
                    "name": "",
                    "type": "bytes4",
                    "internalType": "bytes4"
                },
                {
                    "name": "",
                    "type": "int256",
                    "internalType": "BalanceDelta"
                }
            ],
            "stateMutability": "nonpayable"
        },
        {
            "type": "function",
            "name": "afterDonate",
            "inputs": [
                {
                    "name": "",
                    "type": "address",
                    "internalType": "address"
                },
                {
                    "name": "",
                    "type": "tuple",
                    "internalType": "struct PoolKey",
                    "components": [
                        {
                            "name": "currency0",
                            "type": "address",
                            "internalType": "Currency"
                        },
                        {
                            "name": "currency1",
                            "type": "address",
                            "internalType": "Currency"
                        },
                        {
                            "name": "hooks",
                            "type": "address",
                            "internalType": "contract IHooks"
                        },
                        {
                            "name": "poolManager",
                            "type": "address",
                            "internalType": "contract IPoolManager"
                        },
                        {
                            "name": "fee",
                            "type": "uint24",
                            "internalType": "uint24"
                        },
                        {
                            "name": "parameters",
                            "type": "bytes32",
                            "internalType": "bytes32"
                        }
                    ]
                },
                {
                    "name": "",
                    "type": "uint256",
                    "internalType": "uint256"
                },
                {
                    "name": "",
                    "type": "uint256",
                    "internalType": "uint256"
                },
                {
                    "name": "",
                    "type": "bytes",
                    "internalType": "bytes"
                }
            ],
            "outputs": [
                {
                    "name": "",
                    "type": "bytes4",
                    "internalType": "bytes4"
                }
            ],
            "stateMutability": "nonpayable"
        },
        {
            "type": "function",
            "name": "afterInitialize",
            "inputs": [
                {
                    "name": "",
                    "type": "address",
                    "internalType": "address"
                },
                {
                    "name": "",
                    "type": "tuple",
                    "internalType": "struct PoolKey",
                    "components": [
                        {
                            "name": "currency0",
                            "type": "address",
                            "internalType": "Currency"
                        },
                        {
                            "name": "currency1",
                            "type": "address",
                            "internalType": "Currency"
                        },
                        {
                            "name": "hooks",
                            "type": "address",
                            "internalType": "contract IHooks"
                        },
                        {
                            "name": "poolManager",
                            "type": "address",
                            "internalType": "contract IPoolManager"
                        },
                        {
                            "name": "fee",
                            "type": "uint24",
                            "internalType": "uint24"
                        },
                        {
                            "name": "parameters",
                            "type": "bytes32",
                            "internalType": "bytes32"
                        }
                    ]
                },
                {
                    "name": "",
                    "type": "uint24",
                    "internalType": "uint24"
                },
                {
                    "name": "",
                    "type": "bytes",
                    "internalType": "bytes"
                }
            ],
            "outputs": [
                {
                    "name": "",
                    "type": "bytes4",
                    "internalType": "bytes4"
                }
            ],
            "stateMutability": "nonpayable"
        },
        {
            "type": "function",
            "name": "afterMint",
            "inputs": [
                {
                    "name": "",
                    "type": "address",
                    "internalType": "address"
                },
                {
                    "name": "",
                    "type": "tuple",
                    "internalType": "struct PoolKey",
                    "components": [
                        {
                            "name": "currency0",
                            "type": "address",
                            "internalType": "Currency"
                        },
                        {
                            "name": "currency1",
                            "type": "address",
                            "internalType": "Currency"
                        },
                        {
                            "name": "hooks",
                            "type": "address",
                            "internalType": "contract IHooks"
                        },
                        {
                            "name": "poolManager",
                            "type": "address",
                            "internalType": "contract IPoolManager"
                        },
                        {
                            "name": "fee",
                            "type": "uint24",
                            "internalType": "uint24"
                        },
                        {
                            "name": "parameters",
                            "type": "bytes32",
                            "internalType": "bytes32"
                        }
                    ]
                },
                {
                    "name": "",
                    "type": "tuple",
                    "internalType": "struct IBinPoolManager.MintParams",
                    "components": [
                        {
                            "name": "liquidityConfigs",
                            "type": "bytes32[]",
                            "internalType": "bytes32[]"
                        },
                        {
                            "name": "amountIn",
                            "type": "bytes32",
                            "internalType": "bytes32"
                        },
                        {
                            "name": "salt",
                            "type": "bytes32",
                            "internalType": "bytes32"
                        }
                    ]
                },
                {
                    "name": "",
                    "type": "int256",
                    "internalType": "BalanceDelta"
                },
                {
                    "name": "",
                    "type": "bytes",
                    "internalType": "bytes"
                }
            ],
            "outputs": [
                {
                    "name": "",
                    "type": "bytes4",
                    "internalType": "bytes4"
                },
                {
                    "name": "",
                    "type": "int256",
                    "internalType": "BalanceDelta"
                }
            ],
            "stateMutability": "nonpayable"
        },
        {
            "type": "function",
            "name": "afterSwap",
            "inputs": [
                {
                    "name": "",
                    "type": "address",
                    "internalType": "address"
                },
                {
                    "name": "",
                    "type": "tuple",
                    "internalType": "struct PoolKey",
                    "components": [
                        {
                            "name": "currency0",
                            "type": "address",
                            "internalType": "Currency"
                        },
                        {
                            "name": "currency1",
                            "type": "address",
                            "internalType": "Currency"
                        },
                        {
                            "name": "hooks",
                            "type": "address",
                            "internalType": "contract IHooks"
                        },
                        {
                            "name": "poolManager",
                            "type": "address",
                            "internalType": "contract IPoolManager"
                        },
                        {
                            "name": "fee",
                            "type": "uint24",
                            "internalType": "uint24"
                        },
                        {
                            "name": "parameters",
                            "type": "bytes32",
                            "internalType": "bytes32"
                        }
                    ]
                },
                {
                    "name": "",
                    "type": "bool",
                    "internalType": "bool"
                },
                {
                    "name": "",
                    "type": "int128",
                    "internalType": "int128"
                },
                {
                    "name": "",
                    "type": "int256",
                    "internalType": "BalanceDelta"
                },
                {
                    "name": "",
                    "type": "bytes",
                    "internalType": "bytes"
                }
            ],
            "outputs": [
                {
                    "name": "",
                    "type": "bytes4",
                    "internalType": "bytes4"
                },
                {
                    "name": "",
                    "type": "int128",
                    "internalType": "int128"
                }
            ],
            "stateMutability": "nonpayable"
        },
        {
            "type": "function",
            "name": "ban",
            "inputs": [
                {
                    "name": "_address",
                    "type": "address",
                    "internalType": "address"
                }
            ],
            "outputs": [],
            "stateMutability": "nonpayable"
        },
        {
            "type": "function",
            "name": "banned",
            "inputs": [
                {
                    "name": "",
                    "type": "address",
                    "internalType": "address"
                }
            ],
            "outputs": [
                {
                    "name": "",
                    "type": "bool",
                    "internalType": "bool"
                }
            ],
            "stateMutability": "view"
        },
        {
            "type": "function",
            "name": "beforeBurn",
            "inputs": [
                {
                    "name": "",
                    "type": "address",
                    "internalType": "address"
                },
                {
                    "name": "",
                    "type": "tuple",
                    "internalType": "struct PoolKey",
                    "components": [
                        {
                            "name": "currency0",
                            "type": "address",
                            "internalType": "Currency"
                        },
                        {
                            "name": "currency1",
                            "type": "address",
                            "internalType": "Currency"
                        },
                        {
                            "name": "hooks",
                            "type": "address",
                            "internalType": "contract IHooks"
                        },
                        {
                            "name": "poolManager",
                            "type": "address",
                            "internalType": "contract IPoolManager"
                        },
                        {
                            "name": "fee",
                            "type": "uint24",
                            "internalType": "uint24"
                        },
                        {
                            "name": "parameters",
                            "type": "bytes32",
                            "internalType": "bytes32"
                        }
                    ]
                },
                {
                    "name": "",
                    "type": "tuple",
                    "internalType": "struct IBinPoolManager.BurnParams",
                    "components": [
                        {
                            "name": "ids",
                            "type": "uint256[]",
                            "internalType": "uint256[]"
                        },
                        {
                            "name": "amountsToBurn",
                            "type": "uint256[]",
                            "internalType": "uint256[]"
                        },
                        {
                            "name": "salt",
                            "type": "bytes32",
                            "internalType": "bytes32"
                        }
                    ]
                },
                {
                    "name": "",
                    "type": "bytes",
                    "internalType": "bytes"
                }
            ],
            "outputs": [
                {
                    "name": "",
                    "type": "bytes4",
                    "internalType": "bytes4"
                }
            ],
            "stateMutability": "nonpayable"
        },
        {
            "type": "function",
            "name": "beforeDonate",
            "inputs": [
                {
                    "name": "",
                    "type": "address",
                    "internalType": "address"
                },
                {
                    "name": "",
                    "type": "tuple",
                    "internalType": "struct PoolKey",
                    "components": [
                        {
                            "name": "currency0",
                            "type": "address",
                            "internalType": "Currency"
                        },
                        {
                            "name": "currency1",
                            "type": "address",
                            "internalType": "Currency"
                        },
                        {
                            "name": "hooks",
                            "type": "address",
                            "internalType": "contract IHooks"
                        },
                        {
                            "name": "poolManager",
                            "type": "address",
                            "internalType": "contract IPoolManager"
                        },
                        {
                            "name": "fee",
                            "type": "uint24",
                            "internalType": "uint24"
                        },
                        {
                            "name": "parameters",
                            "type": "bytes32",
                            "internalType": "bytes32"
                        }
                    ]
                },
                {
                    "name": "",
                    "type": "uint256",
                    "internalType": "uint256"
                },
                {
                    "name": "",
                    "type": "uint256",
                    "internalType": "uint256"
                },
                {
                    "name": "",
                    "type": "bytes",
                    "internalType": "bytes"
                }
            ],
            "outputs": [
                {
                    "name": "",
                    "type": "bytes4",
                    "internalType": "bytes4"
                }
            ],
            "stateMutability": "nonpayable"
        },
        {
            "type": "function",
            "name": "beforeInitialize",
            "inputs": [
                {
                    "name": "",
                    "type": "address",
                    "internalType": "address"
                },
                {
                    "name": "",
                    "type": "tuple",
                    "internalType": "struct PoolKey",
                    "components": [
                        {
                            "name": "currency0",
                            "type": "address",
                            "internalType": "Currency"
                        },
                        {
                            "name": "currency1",
                            "type": "address",
                            "internalType": "Currency"
                        },
                        {
                            "name": "hooks",
                            "type": "address",
                            "internalType": "contract IHooks"
                        },
                        {
                            "name": "poolManager",
                            "type": "address",
                            "internalType": "contract IPoolManager"
                        },
                        {
                            "name": "fee",
                            "type": "uint24",
                            "internalType": "uint24"
                        },
                        {
                            "name": "parameters",
                            "type": "bytes32",
                            "internalType": "bytes32"
                        }
                    ]
                },
                {
                    "name": "",
                    "type": "uint24",
                    "internalType": "uint24"
                },
                {
                    "name": "",
                    "type": "bytes",
                    "internalType": "bytes"
                }
            ],
            "outputs": [
                {
                    "name": "",
                    "type": "bytes4",
                    "internalType": "bytes4"
                }
            ],
            "stateMutability": "nonpayable"
        },
        {
            "type": "function",
            "name": "beforeMint",
            "inputs": [
                {
                    "name": "",
                    "type": "address",
                    "internalType": "address"
                },
                {
                    "name": "",
                    "type": "tuple",
                    "internalType": "struct PoolKey",
                    "components": [
                        {
                            "name": "currency0",
                            "type": "address",
                            "internalType": "Currency"
                        },
                        {
                            "name": "currency1",
                            "type": "address",
                            "internalType": "Currency"
                        },
                        {
                            "name": "hooks",
                            "type": "address",
                            "internalType": "contract IHooks"
                        },
                        {
                            "name": "poolManager",
                            "type": "address",
                            "internalType": "contract IPoolManager"
                        },
                        {
                            "name": "fee",
                            "type": "uint24",
                            "internalType": "uint24"
                        },
                        {
                            "name": "parameters",
                            "type": "bytes32",
                            "internalType": "bytes32"
                        }
                    ]
                },
                {
                    "name": "",
                    "type": "tuple",
                    "internalType": "struct IBinPoolManager.MintParams",
                    "components": [
                        {
                            "name": "liquidityConfigs",
                            "type": "bytes32[]",
                            "internalType": "bytes32[]"
                        },
                        {
                            "name": "amountIn",
                            "type": "bytes32",
                            "internalType": "bytes32"
                        },
                        {
                            "name": "salt",
                            "type": "bytes32",
                            "internalType": "bytes32"
                        }
                    ]
                },
                {
                    "name": "",
                    "type": "bytes",
                    "internalType": "bytes"
                }
            ],
            "outputs": [
                {
                    "name": "",
                    "type": "bytes4",
                    "internalType": "bytes4"
                },
                {
                    "name": "",
                    "type": "uint24",
                    "internalType": "uint24"
                }
            ],
            "stateMutability": "nonpayable"
        },
        {
            "type": "function",
            "name": "beforeSwap",
            "inputs": [
                {
                    "name": "",
                    "type": "address",
                    "internalType": "address"
                },
                {
                    "name": "",
                    "type": "tuple",
                    "internalType": "struct PoolKey",
                    "components": [
                        {
                            "name": "currency0",
                            "type": "address",
                            "internalType": "Currency"
                        },
                        {
                            "name": "currency1",
                            "type": "address",
                            "internalType": "Currency"
                        },
                        {
                            "name": "hooks",
                            "type": "address",
                            "internalType": "contract IHooks"
                        },
                        {
                            "name": "poolManager",
                            "type": "address",
                            "internalType": "contract IPoolManager"
                        },
                        {
                            "name": "fee",
                            "type": "uint24",
                            "internalType": "uint24"
                        },
                        {
                            "name": "parameters",
                            "type": "bytes32",
                            "internalType": "bytes32"
                        }
                    ]
                },
                {
                    "name": "",
                    "type": "bool",
                    "internalType": "bool"
                },
                {
                    "name": "",
                    "type": "int128",
                    "internalType": "int128"
                },
                {
                    "name": "",
                    "type": "bytes",
                    "internalType": "bytes"
                }
            ],
            "outputs": [
                {
                    "name": "",
                    "type": "bytes4",
                    "internalType": "bytes4"
                },
                {
                    "name": "",
                    "type": "int256",
                    "internalType": "BeforeSwapDelta"
                },
                {
                    "name": "",
                    "type": "uint24",
                    "internalType": "uint24"
                }
            ],
            "stateMutability": "nonpayable"
        },
        {
            "type": "function",
            "name": "getHooksRegistrationBitmap",
            "inputs": [],
            "outputs": [
                {
                    "name": "",
                    "type": "uint16",
                    "internalType": "uint16"
                }
            ],
            "stateMutability": "pure"
        },
        {
            "type": "function",
            "name": "initialize",
            "inputs": [
                {
                    "name": "currency0",
                    "type": "address",
                    "internalType": "Currency"
                },
                {
                    "name": "currency1",
                    "type": "address",
                    "internalType": "Currency"
                }
            ],
            "outputs": [],
            "stateMutability": "nonpayable"
        },
        {
            "type": "function",
            "name": "lockAcquired",
            "inputs": [
                {
                    "name": "data",
                    "type": "bytes",
                    "internalType": "bytes"
                }
            ],
            "outputs": [
                {
                    "name": "",
                    "type": "bytes",
                    "internalType": "bytes"
                }
            ],
            "stateMutability": "nonpayable"
        },
        {
            "type": "function",
            "name": "owner",
            "inputs": [],
            "outputs": [
                {
                    "name": "",
                    "type": "address",
                    "internalType": "address"
                }
            ],
            "stateMutability": "view"
        },
        {
            "type": "function",
            "name": "poolKey",
            "inputs": [],
            "outputs": [
                {
                    "name": "currency0",
                    "type": "address",
                    "internalType": "Currency"
                },
                {
                    "name": "currency1",
                    "type": "address",
                    "internalType": "Currency"
                },
                {
                    "name": "hooks",
                    "type": "address",
                    "internalType": "contract IHooks"
                },
                {
                    "name": "poolManager",
                    "type": "address",
                    "internalType": "contract IPoolManager"
                },
                {
                    "name": "fee",
                    "type": "uint24",
                    "internalType": "uint24"
                },
                {
                    "name": "parameters",
                    "type": "bytes32",
                    "internalType": "bytes32"
                }
            ],
            "stateMutability": "view"
        },
        {
            "type": "function",
            "name": "poolManager",
            "inputs": [],
            "outputs": [
                {
                    "name": "",
                    "type": "address",
                    "internalType": "contract IBinPoolManager"
                }
            ],
            "stateMutability": "view"
        },
        {
            "type": "function",
            "name": "unban",
            "inputs": [
                {
                    "name": "_address",
                    "type": "address",
                    "internalType": "address"
                }
            ],
            "outputs": [],
            "stateMutability": "nonpayable"
        },
        {
            "type": "function",
            "name": "vault",
            "inputs": [],
            "outputs": [
                {
                    "name": "",
                    "type": "address",
                    "internalType": "contract IVault"
                }
            ],
            "stateMutability": "view"
        },
        {
            "type": "event",
            "name": "PoolKeyLogged",
            "inputs": [
                {
                    "name": "currency0",
                    "type": "address",
                    "indexed": false,
                    "internalType": "Currency"
                },
                {
                    "name": "currency1",
                    "type": "address",
                    "indexed": false,
                    "internalType": "Currency"
                },
                {
                    "name": "hooks",
                    "type": "address",
                    "indexed": false,
                    "internalType": "address"
                },
                {
                    "name": "poolManager",
                    "type": "address",
                    "indexed": false,
                    "internalType": "address"
                },
                {
                    "name": "fee",
                    "type": "uint24",
                    "indexed": false,
                    "internalType": "uint24"
                },
                {
                    "name": "parameters",
                    "type": "bytes32",
                    "indexed": false,
                    "internalType": "bytes32"
                }
            ],
            "anonymous": false
        },
        {
            "type": "error",
            "name": "Banned",
            "inputs": []
        },
        {
            "type": "error",
            "name": "HookNotImplemented",
            "inputs": []
        },
        {
            "type": "error",
            "name": "InvalidPool",
            "inputs": []
        },
        {
            "type": "error",
            "name": "LockFailure",
            "inputs": []
        },
        {
            "type": "error",
            "name": "NotBanlistManager",
            "inputs": []
        },
        {
            "type": "error",
            "name": "NotPoolManager",
            "inputs": []
        },
        {
            "type": "error",
            "name": "NotSelf",
            "inputs": []
        },
        {
            "type": "error",
            "name": "NotVault",
            "inputs": []
        }
    ],
    "bytecode": {
        "object": "0x60c080604052346101165760408161104e803803809161001f828561012d565b833981010312610116578051906001600160a01b0382169081830361011657602001516001600160a01b03811692908390036101165760805260405163fbfa77cf60e01b815290602090829060049082905afa908115610122575f916100dc575b5060a052600180546001600160a01b031916919091179055604051610ee9908161016582396080518181816102dc015281816104cd01528181610640015281816106b30152610b17015260a051818181610116015261039e0152f35b90506020813d60201161011a575b816100f76020938361012d565b8101031261011657516001600160a01b0381168103610116575f610080565b5f80fd5b3d91506100ea565b6040513d5f823e3d90fd5b601f909101601f19168101906001600160401b0382119082101761015057604052565b634e487b7160e01b5f52604160045260245ffdfe60806040526004361015610011575f80fd5b5f803560e01c8063081e1a8c14610b905780630925078214610b04578063182148ef14610a9f578063485cc9551461070b5780634b6a682d1461069f5780635177cb2f146105e25780635250df39146105d05780635304d44e146105ac5780635e927caa146105425780636514d01f146103655780636eceef08146104b95780638da5cb5b1461049057806397c3ccd8146104425780639c8d83bb14610404578063ab6291fe1461036a578063ae92a8e814610365578063b9f145571461030b578063dc4c90d3146102c6578063edf78c2e146102a8578063f961d1f4146101485763fbfa77cf14610101575f80fd5b346101455780600319360112610145576040517f00000000000000000000000000000000000000000000000000000000000000006001600160a01b03168152602090f35b80fd5b5034610145578060031936011261014557604051906101c082018281106001600160401b03821117610294576101a06020938392604052828152828582015260016040820152826060820152600160808201528260a0820152600160c08201528260e08201526001610100820152826101208201528261014082015282610160820152826101808201520152805f1461028a5761ffff6002915b8015610283576008905b801561027d57845b81156102775760805b6101008315610271576102005b8415610268576040610400935b861561025f576010610800965b881561025857611000985b1561024f5760046120009a5b85519d171717171717171717171717168152f35b60045f9a61023b565b5f9861022f565b60105f96610224565b60405f93610217565b5f61020a565b5f6101fd565b5f6101f4565b5f906101ec565b61ffff5f916101e2565b634e487b7160e01b82526041600452602482fd5b50346101455780600319360112610145576020604051628000008152f35b50346101455780600319360112610145576040517f00000000000000000000000000000000000000000000000000000000000000006001600160a01b03168152602090f35b503461014557602036600319011261014557610325610bb3565b6001546001600160a01b03163303610356576001600160a01b03168152602081905260408120805460ff1916905580f35b635992c63160e11b8252600482fd5b610d5c565b5034610145576020366003190112610145576004356001600160401b0381116104005761039b903690600401610bc9565b917f00000000000000000000000000000000000000000000000000000000000000006001600160a01b031633036103f1576103ed6103d98484610e35565b604051918291602083526020830190610dd1565b0390f35b6362df054560e01b8152600490fd5b5080fd5b50346101455760203660031901126101455760209060ff906040906001600160a01b0361042f610bb3565b1681528084522054166040519015158152f35b50346101455760203660031901126101455761045c610bb3565b6001546001600160a01b03163303610356576001600160a01b03168152602081905260408120805460ff1916600117905580f35b50346101455780600319360112610145576001546040516001600160a01b039091168152602090f35b5034610145576104c836610c71565b5050507f00000000000000000000000000000000000000000000000000000000000000006001600160a01b0316330391506105339050573281528060205260ff60408220541661052457604051630dd9dde160e31b8152602090f35b637064572b60e01b8152600490fd5b63570c108560e11b8152600490fd5b5034610145576101603660031901126101455761055d610bb3565b5060c036602319011261014557610572610d3c565b5061057b610d4b565b50610144356001600160401b038111610400579061059e60049236908401610bc9565b5050630a85dc2960e01b8152fd5b5034610145576004906105be36610ce4565b5050630a85dc2960e01b855250505050fd5b5034610145576004906105be36610bf6565b503461014557610140366003190112610145576105fd610bb3565b5060c036602319011261014557610612610d3c565b5061061b610d4b565b50610124356001600160401b0381116104005761063c903690600401610bc9565b50507f00000000000000000000000000000000000000000000000000000000000000006001600160a01b03163303610533573281528060205260ff6040822054166105245760609060405190635177cb2f60e01b82528060208301526040820152f35b5034610145576106ae36610ce4565b5050507f00000000000000000000000000000000000000000000000000000000000000006001600160a01b031633039250610533915050573281528060205260ff60408220541661052457604051634b6a682d60e01b8152602090f35b50346109cc5760403660031901126109cc57610725610bb3565b6024356001600160a01b03811691908290036109cc576001546001600160a01b03163303610a9057604051633e58747d60e21b8152602081600481305afa9081156109c1575f91610a51575b5061ffff620a00009116179160405163dc4c90d360e01b8152602081600481305afa9081156109c1575f91610a32575b506040519260c084018481106001600160401b03821117610a1e5760409081526001600160a01b0391821680865260208087018690523087840181905294841660608801819052610bb8608089015260a0909701889052600280546001600160a01b0319908116841790915560038054821688179055600480548216871781556005805461017760a31b6001600160b81b031982168c17179182905560068c9055955163dc4c90d360e01b8152949a9990989590921690911795939094169391929091839182905afa9182156109c1577f1cbc986c5717e052cf20044771bdcb70972bdc0da28f658783f717edf041f6d89260c0925f916109ff575b5062ffffff60055460a01c1660065491604051938a8552602085015230604085015260018060a01b03166060840152608083015260a0820152a160405163dc4c90d360e01b8152602081600481305afa9081156109c1575f916109d0575b5060018060a01b031690604051610913602082610df5565b5f808252366020830137823b156109cc57604051630879e96160e31b81526004808201979097526003546001600160a01b03908116602483015296548716604482015295909116606486015260a09290921c62ffffff16608485015260a48401929092526280000060c484015261010060e48401525f9183918290849082906109a190610104830190610dd1565b03925af180156109c1576109b3575080f35b6109bf91505f90610df5565b005b6040513d5f823e3d90fd5b5f80fd5b6109f2915060203d6020116109f8575b6109ea8183610df5565b810190610e16565b5f6108fb565b503d6109e0565b610a18915060203d6020116109f8576109ea8183610df5565b5f61089d565b634e487b7160e01b5f52604160045260245ffd5b610a4b915060203d6020116109f8576109ea8183610df5565b5f6107a1565b90506020813d602011610a88575b81610a6c60209383610df5565b810103126109cc575161ffff811681036109cc5761ffff610771565b3d9150610a5f565b635992c63160e11b5f5260045ffd5b346109cc575f3660031901126109cc57600254600354600454600554600654604080516001600160a01b039687168152948616602086015292851692840192909252928316606083015260a092831c62ffffff1660808301529181019190915260c090f35b346109cc57610b1236610c71565b5050507f00000000000000000000000000000000000000000000000000000000000000006001600160a01b031633039150610b81905057325f525f60205260ff60405f205416610b72576040805163049283c160e11b81525f6020820152f35b637064572b60e01b5f5260045ffd5b63570c108560e11b5f5260045ffd5b346109cc57610b9e36610bf6565b505050505050630a85dc2960e01b5f5260045ffd5b600435906001600160a01b03821682036109cc57565b9181601f840112156109cc578235916001600160401b0383116109cc57602083818601950101116109cc57565b6101406003198201126109cc576004356001600160a01b03811681036109cc579160c06023198301126109cc5760249160e4356001600160401b0381116109cc57606081830360031901126109cc5760040191610104359161012435906001600160401b0382116109cc57610c6d91600401610bc9565b9091565b906101206003198301126109cc576004356001600160a01b03811681036109cc579160c06023198201126109cc5760249160e4356001600160401b0381116109cc57606081840360031901126109cc576004019161010435906001600160401b0382116109cc57610c6d91600401610bc9565b6101406003198201126109cc576004356001600160a01b03811681036109cc579160c06023198301126109cc5760249160e43591610104359161012435906001600160401b0382116109cc57610c6d91600401610bc9565b60e4359081151582036109cc57565b610104359081600f0b82036109cc57565b346109cc576101203660031901126109cc576004356001600160a01b03811681036109cc575060c03660231901126109cc5760e43562ffffff811681036109cc5750610104356001600160401b0381116109cc57610dbe903690600401610bc9565b5050630a85dc2960e01b5f908152600490fd5b805180835260209291819084018484015e5f828201840152601f01601f1916010190565b90601f801991011681019081106001600160401b03821117610a1e57604052565b908160209103126109cc57516001600160a01b03811681036109cc5790565b5f9182918160405192839283378101838152039082305af1903d15610eab573d916001600160401b038311610a1e5760405192610e7c601f8201601f191660200185610df5565b83523d5f602085013e5b610ea95750805115610e9a57602081519101fd5b6314815f4760e31b5f5260045ffd5b565b606091610e8656fea2646970667358221220162da5bf92383635e60f2659d765e1988c96ea7ba72ba44df0ed6a70752e66e464736f6c634300081a0033",
        "linkReferences": {}
    },
    "methodIdentifiers": {
        "ACTIVE_ID()": "edf78c2e",
        "afterBurn(address,(address,address,address,address,uint24,bytes32),(uint256[],uint256[],bytes32),int256,bytes)": "5250df39",
        "afterDonate(address,(address,address,address,address,uint24,bytes32),uint256,uint256,bytes)": "5304d44e",
        "afterInitialize(address,(address,address,address,address,uint24,bytes32),uint24,bytes)": "6514d01f",
        "afterMint(address,(address,address,address,address,uint24,bytes32),(bytes32[],bytes32,bytes32),int256,bytes)": "081e1a8c",
        "afterSwap(address,(address,address,address,address,uint24,bytes32),bool,int128,int256,bytes)": "5e927caa",
        "ban(address)": "97c3ccd8",
        "banned(address)": "9c8d83bb",
        "beforeBurn(address,(address,address,address,address,uint24,bytes32),(uint256[],uint256[],bytes32),bytes)": "6eceef08",
        "beforeDonate(address,(address,address,address,address,uint24,bytes32),uint256,uint256,bytes)": "4b6a682d",
        "beforeInitialize(address,(address,address,address,address,uint24,bytes32),uint24,bytes)": "ae92a8e8",
        "beforeMint(address,(address,address,address,address,uint24,bytes32),(bytes32[],bytes32,bytes32),bytes)": "09250782",
        "beforeSwap(address,(address,address,address,address,uint24,bytes32),bool,int128,bytes)": "5177cb2f",
        "getHooksRegistrationBitmap()": "f961d1f4",
        "initialize(address,address)": "485cc955",
        "lockAcquired(bytes)": "ab6291fe",
        "owner()": "8da5cb5b",
        "poolKey()": "182148ef",
        "poolManager()": "dc4c90d3",
        "unban(address)": "b9f14557",
        "vault()": "fbfa77cf"
    },
    "id": 167
}